:1000000000000420750300005D0300005F03000092
:1000100061030000630300006503000000000000AE
:100020000000000000000000000000006703000066
:1000300069030000000000006B0300006D03000076
:100040003D320000754E0000512400006F03000097
:100050006F0300006F0300006F0300006F030000D8
:10006000F14F0000095000006F0300006F03000013
:100070006F0300006F0300006F0300006F030000B8
:100080006F0300006F0300006F0300006F030000A8
:100090006F0300006F0300006F0300006F03000098
:1000A0006F0300006F0300006F0300006F03000088
:1000B0006F0300006F03000000000000000000005C
:1000C0006F0300006F0300006F0300006F03000068
:1000D0006F0300006F0300006F0300006541000024
:1000E0006F0300006F0300006F03000000000000BA
:1000F000000000006F030000000000006F0300001C
:1001000000000000000000000000000000000000EF
:1001100000000000000000000000000000000000DF
:1001200000000000000000000000000000000000CF
:1001300000000000000000000000000000000000BF
:1001400000000000000000000000000000000000AF
:10015000000000000000000000000000000000009F
:10016000000000000000000000000000000000008F
:10017000000000000000000000000000000000007F
:10018000000000000000000000000000000000006F
:10019000000000000000000000000000000000005F
:1001A000000000000000000000000000000000004F
:1001B000000000000000000000000000000000003F
:1001C000000000000000000000000000000000002F
:1001D000000000000000000000000000000000001F
:1001E000000000000000000000000000000000000F
:1001F00000000000000000000000000000000000FF
:10020000354936480A1A02D0072291438D463449AF
:1002100034480A1A06D00722914381F30988022242
:1002200082F3148830483149314A00F044F83148AB
:100230003149324A00F03FF831483249324A00F041
:100240003AF832483249334A00F035F832483349F7
:10025000334A00F030F833483349344A00F02BF881
:1002600033483449344A00F026F8344834490022EF
:1002700000F02CF833483449002200F027F83348C6
:100280003349091A082902DB002202604160314A21
:1002900090471F481F49884205D00268043003B4C4
:1002A000904703BCF7E700208646EC46002000217B
:1002B000294A9047FEE7884207D0521A05D00378B2
:1002C00001300B700131013AF9D17047884202D0F8
:1002D00002700130FAE770470000042000E00320BC
:1002E0000000042000000420905F000000000020B7
:1002F00028000020D0030000D0030000085C0000AC
:10030000905F00000000002000000020085C00005A
:10031000085C0000085C0000085C0000085C00004D
:10032000085C0000085C0000085C0000905F0000B2
:10033000B85F0000280000202800002028000020CE
:100340005C0A00205C0A00205C0A00205C0A002095
:100350005C2A00209D03000061450000FEE7FEE7E7
:10036000FEE7FEE7FEE7FEE7FEE7FEE7FEE7FEE765
:1003700000F002B8FFF7FCBF0F484FF007018843B9
:1003800085460E4880470E48016841F470010160BF
:10039000BFF34F8FBFF36F8FFFF732BF09480A4992
:1003A0000A4A884207D0521A05D0037801300B70F0
:1003B0000131013AF9D17047000004205951000081
:1003C00088ED00E0085C0000000000200000002034
:1003D0001FB50021039001AA44F20100CDE90111EB
:1003E00000F004F805B05DF804FB000072B6094B9C
:1003F000D3F8F020D20700D500BEBFF34F8FD968E5
:10040000054A01F4E0610A43DA60BFF34F8F00BF91
:10041000FDE700BF00ED00E00400FA0549B152B16C
:10042000531E1A4007D1826001608380C26010466B
:1004300070470E2070470920704710B58468C26865
:100440008388121B934208D3C26813400268D154B8
:10045000C3680133C360002010BD0420FCE782683C
:10046000C3689A420AD08268838813400268D35CCA
:100470000B7083680133836000207047052070474C
:100480000648074A03780749D35C012213B10430B8
:1004900002F06EBC0C3002F017BA00BF0000002062
:1004A000CC020020500000200648074A0378074984
:1004B000D35C012213B1043002F00CBC0C3002F00A
:1004C000B3B900BF00000020CC0200205100002082
:1004D00037B50578012D0DD0022D30D075B91F49E3
:1004E0001F48FFF7BCFF002834D103B0BDE83040FF
:1004F000FFF7DABF037A1BB9FFF7C2FF03B030BDC5
:100500004368184C19782046FFF797FF80B18DF8A3
:1005100000500190144B68461B689847A168E36837
:10052000A2885B1A9A42E7D2104B01221A70E5E7C3
:10053000A268E3689A42F1D08DF80000EAE7C36848
:100540008DF800500193FFF79BFF074B68461B682F
:100550009847D3E703238DF80030F6E751000020D9
:10056000400000202C000020280000203C0000203B
:10057000F0B51F46234B89B004461A600D4600298A
:100580003DD08A8820480968FFF748FF002834D109
:10059000AA89A9681D48FFF741FF00282DD11C4EEC
:1005A0000FCE6D460FC596E80F0085E80F00636912
:1005B0000693237C174A18488DF81C70003B18BF1F
:1005C00001238DF81430637C002B14BF0E2300230D
:1005D0008DF81530E3680293A368039323680193B1
:1005E00069466368009301F0E9FE30B90B4B18705F
:1005F0002368013301D0FFF743FF09B0F0BD0720A6
:10060000FBE700BF280000202C0000204000002055
:10061000085C0000D1040000000000203C00002025
:1006200072B6024A13680133136070475400002009
:10063000034A1368013B136003B962B6704700BFF9
:1006400054000020FFF7ECBFFFF7F2BF10B50346E0
:1006500053E8000F0A4643E8002494F0000FF7D156
:1006600010BD10B5034653E8000F00EA010243E84D
:10067000002494F0000FF6D110BD10B5034653E8E6
:10068000002F02EB010043E8000494F0000FF6D1C4
:1006900010BD10B5034653E8002F8A422CBF501AF4
:1006A000104643E8000494F0000FF4D110BD00217F
:1006B000FFF7D7BF43681B6818470000024B5B6811
:1006C00003B11847704700BF5C000020020600F02D
:1006D0000F034CBF02480348DB001844704700BFBB
:1006E00068000020B000002008B5FFF7EFFF0160B0
:1006F00009B14B681968416008BD0000024B014612
:10070000D3E90002104700BFB000002038B5831EB7
:10071000DBB2062B98BF1A4A1A4D98BFD25C2B78D1
:10072000A3F10203DBB288BF0022062B9ABF144953
:10073000CB5C00239342044603D0B2B1124802F0CE
:10074000F5FB022C14D0A4F10800424242412B7860
:10075000022B0FD0A3F108014B424B41934202D030
:1007600052B103F071FA2C7038BD02F009FCE8E7D1
:100770000122ECE70123F1E703F05CFAF3E700BFA5
:10078000285C000028020020140000200378052BBC
:1007900037B504460BD12B4AD2F88434D2F88024E2
:1007A000D2B222B9284ADBB2052B08BF14462378FF
:1007B00013BB264B1D68C5B92846254DFFF742FFE0
:1007C0002B6813B9234B62881A8001212048FFF758
:1007D00054FF0020FFF738FF1F4B1B6813B10121A6
:1007E000204698472B6803B030BD2B6860889B6813
:1007F00098472B685D68DEE7184801A901F0F3FC13
:1008000005460028EFD0236803600020FFF71AFF99
:10081000104B0F481B88026801339B1AEB800021A4
:10082000FFF714FFA8800020FFF70EFF01A90B4877
:1008300001F003FD084B1B680146002BD3D0204676
:100840009847D0E700700240405C00001C02002086
:1008500024020020F80000205C0000200402002098
:10086000FFF794BF012805D0022805D030B904480D
:10087000FFF78CBF0348FBE70348F9E7704700BF69
:10088000385C0000345C00003C5C00000148FFF76D
:100890007DBF00BF445C00002DE9F04F87B000260B
:1008A0000546884691461F4602966B6800225C68A2
:1008B0002946012302A8A047044638B98DF806004E
:1008C00004908246564503D8052028E00136ECE71F
:1008D0006B680DF10602D3F804B02946012304A881
:1008E000D8476B680DF10702D3F804B029460123FD
:1008F00004A8D8479DF8073043459DF8063013D12A
:100900004C450FD1109A13603B7087F801806A68DC
:10091000023B54682946BA1C04A8A047002007B02F
:10092000BDE8F08F0134E4B26A68023BD2F804B04B
:100930002946002204A8D8479DF806309A44C1E70A
:100940002DE9F743082305462D492E484FF48472BC
:1009500001F036FC002851D12B4803F08BF90446F6
:10096000002847D1294B1870294B1860294B0146A4
:1009700018604822284804F0E6FD2848482221460D
:1009800004F0E1FD264B8DB9C3E900551D7200202E
:1009900002F00AFB18B1852801D0FFF719FD214F9D
:1009A000002697F8089007F1090810E095E807007D
:1009B00083E80700EBE7A37823443946985CFFF708
:1009C00093FE01356378EAB29342F4D80136F4B26B
:1009D000A14504D904EB440444440025F2E70B2369
:1009E00010488DF8043001A9FFF764FE044608B1F1
:1009F00003F016F8204603B0BDE8F0830324F9E7BE
:100A0000FA000020040200206108000028020020F3
:100A1000140200201802002068000020B00000200E
:100A20005C0000204C5C000010B503F0BFF810B96A
:100A30000823184610BD03F0C1F804460028F7D17A
:100A4000044802F0CCFA03460028F2D0FFF7C0FCBD
:100A50002346EEE7305C000002F0ECBF03F010BC70
:100A60004FF08043D3F83824920702D50348FFF7AC
:100A70008DBED3F83824D107F4D47047495C000008
:100A800007B5822301A88DF80430FFF77FFE03B07D
:100A90005DF804FB2DE9F74300F1090190F8089097
:100AA000054600270E46FBB24B452AD291F801803D
:100AB0000024E3B298450AD98B780A190134D05C36
:100AC000FFF704FE0368002BF3D0112028E0013764
:100AD0000331E8E7A27823442946985CFFF704FE37
:100AE00001376278FBB29A42F4D808F101082B7AF8
:100AF0005FFA88F4A34216D904EB44043444002777
:100B0000EFE74FF00008F2E713681A68002AFBD1FC
:100B10001D6001A90B2328468DF80430FFF7CAFD9C
:100B200003B0BDE8F083014BEFE700BF14020020E3
:100B3000024B1878003818BF0120704720020020AF
:100B4000030710B5044604D403F0B0F9204603F0BF
:100B50005DFC2046BDE8104003F004BC03F0D0BBB0
:100B6000014B1868704700BF14020020F0B50A4B13
:100B70000246186878B1057A0023861DDCB2A542CA
:100B800001D80368F5E7013303EB4307F75D9742AC
:100B9000F4D101B10C70F0BD140200201146FFF732
:100BA00089BD08B500F00F03082B07D8FFF78EFDAD
:100BB000006818B1BDE80840FFF77CBD102008BDF3
:100BC00038B5054B05461C6804B938BD2946204692
:100BD000FFF770FD2368F6E71402002038B5074BD5
:100BE00005461C680CB9062038BD29462046FFF78B
:100BF00061FD0628F8D12368F3E700BF1402002046
:100C000013B50446019103F07BF850B1064B1B78F5
:100C1000022B06D10199204602B0BDE8104003F036
:100C20007FB8082002B010BD2802002013B504468A
:100C3000019103F065F850B1064B1B78022B06D1E9
:100C40000199204602B0BDE8104003F0DDB808204D
:100C500002B010BD28020020F8B543689B68054625
:100C60000C46164613B92EB1072002E09847062815
:100C7000F9D0F8BD2B7AA34213D9093504EB44040B
:100C80002C446778F3B29F4201D80020F1E76278E4
:100C90009A4208D9A219A378D05CFFF751FF013618
:100CA000F0E77378FFDE00231B78FBE74368DB681F
:100CB00070B505460C4603B198472B7AA34213D969
:100CC000093504EB44042C4400256678EBB29E42BF
:100CD00000D870BD62789A4209D96219A378D05CB5
:100CE00003F00EFB0135F1E700235B78FFDE002304
:100CF0001B78FBE743681B6903B118471846704728
:100D000070B5084B1C6804B970BD267A0025E9B29D
:100D10008E4201D82368F5E700222046FFF79CFFAA
:100D20000135F4E71402002070B5084B1C6804B9C3
:100D300070BD267A0025E9B28E4201D82368F5E716
:100D40002046FFF7B3FF0135F5E700BF140200208E
:100D500038B503780F2B044610D9A3F1800283F035
:100D60008003052B00D938BD052AFCD8DFE812F036
:100D700067002C00490073007E00E0000F2BF2D8C2
:100D800001A252F823F000BF8F0E0000BF0E00003A
:100D90001F0F0000E30E0000010F0000310F0000E4
:100DA000430F0000670D00006D0F0000710F000081
:100DB000750F0000670D0000670D0000670D000053
:100DC000670D00003B0F00006B48FFF797FC6A4877
:100DD000FFF7F6FE0D20FFF771FCFFF7A5FF00F00F
:100DE000C8F9664B1B6853B9654B187A00F00100CF
:100DF00002F0B8FE0120BDE83840FFF787BC0120B3
:100E0000F4E7FFF791FF03F019FA0020FFF77EFCEB
:100E10005C48FFF7D5FE5B48FFF770FC0E20FFF73C
:100E20004DFC594B1B78023BDBB2062B9BD8574A33
:100E3000D35C002B97D0BDE8384002F0A1B8524BEC
:100E40001B78062B05D003F0FD03052B8BD1022068
:100E5000D1E70820CFE74C4B1B78032B83D103F05D
:100E600029FA00283FF47FAF0420C4E7464B1B78E3
:100E7000032B05D103F01EFA10B10420FFF746FC46
:100E800002F0A6FE00283FF46EAF0620B3E73E4B0B
:100E90001B78032B01D0082B02D13D48FFF758FFE8
:100EA0000020FFF70BFC354B1D68002D3FF45BAFB6
:100EB00028462146FFF7FEFB2B685D68F5E7FFF744
:100EC00033FF00F04DF90220FFF720FC0120FFF76F
:100ED000F5FB2046FFF712FC2046BDE83840FFF73F
:100EE0006FBE294B1B78082B06D10220FFF70EFCA2
:100EF00002F0B4FE0320EAE70520FFF707FCF9E75C
:100F00000320FFF7DBFB2348FFF7F8FB2148FFF73F
:100F100057FE1D4B1B78062B99D107206BE703204A
:100F2000FFF7F4FB0220FFF7C9FB2046FFF748FE5E
:100F30002046BDE83840FFF7E1BB0F20FFF7BEFBBE
:100F4000CAE78078FFF7C2FB2146436800689847EC
:100F500000283FF408AFA07802073FF404AF03076E
:100F60003FF501AFBDE8384002F092BF0820E5E749
:100F70000920E3E70A20E1E7485C000018020020AE
:100F80005C000020475C000028020020285C000074
:100F9000465C0000455C000073B5224E00230193BF
:100FA000336823B92049214801F057F9306034688B
:100FB000ECB1A58885B1E388B3F5006F24BF0023A9
:100FC000E380E388ADF806305A1C013DE280A5803D
:100FD00001A8FFF7BDFE07E02046FFF7B9FE124962
:100FE000124801F065F93560012002B070BD104B68
:100FF00018680028F9D02046FFF724FB0D4B0C4859
:101000001A88B2F5006F28BF1C801A88ADF8062038
:10101000511C19800121FFF73CFB0020FFF714FB56
:10102000D6E700BF2C020020580000200402002058
:1010300024020020F8000020002070472DE9F04F26
:101040002DED028B4B6885B080460C4601926BB942
:101050000B681B681B684BB98D683DB9C0E900552A
:10106000284605B0BDEC028BBDE8F08F02F00CFF06
:10107000019BE7689F4228BF1F4604F110034FF011
:10108000000A08EE103A8146564601254FB3A36880
:101090006168BB429B4628BFBB4629B35A4609EB51
:1010A000060004F027FA00236360A268E368A2EB5D
:1010B0000B02A3EB0B03A260E360A7EB0B075E44FC
:1010C0000ABBBAF1000F03D02268126812682260CE
:1010D000DBB12368DBB963601EB1019BB34288BFFB
:1010E0000025C8E90096BBE7002BDED021684B68DD
:1010F00018EE100AD3F804A009EB06025B46D047AD
:101100004FF0010AD1E7002BC0D10025BEE7002334
:10111000029321684B680022D3F804B002A801238F
:10112000D84708B92061B1E7A3680133A360F0E7AD
:10113000084B1A7882420CD0052818BF064A18704E
:1011400018BF137805481CBF23F002031370FFF784
:10115000FFBD70473C020020580200205C5C00008C
:1011600008B50020FFF7ECFCBDE808408020FFF741
:10117000E7BC08B50020FFF7F1FCBDE8084080207F
:10118000FFF7ECBC38B505460C4602F00BFFA84251
:1011900005BFD4E90001034B1020C3E9000108BFDB
:1011A000002038BD5C0200207FB5C38893421E46F4
:1011B00028BF164693420D46144620D9802002F0DF
:1011C00099FDB4FBF0F202FB1044B4FA84F4640914
:1011D00000200394CDE90156FFF734FA01A98020DD
:1011E000FFF70EFD044620B906498020FFF7CAFF2D
:1011F00004460020FFF728FA204604B070BD002402
:10120000E6E700BF905C00002DE9F04F0B780E2B55
:1012100089B00D4613D8A3B1013B0D2B11D8DFE8DF
:1012200013F012001A00160010002A00EE01100040
:101230001000100010001A00D801DC01EC01852B11
:1012400013D00624D5E10320FFF772FFF9E7A54884
:10125000FFF72DFA08B90024CBE1A34B0122DA6590
:10126000BFF36F8FBFF34F8FF5E7A04B1B78032BB6
:10127000E7D10420E8E705239D4D8DF814300DF1EA
:10128000150002F023FE00232B609DF8153003F0BB
:101290001F07032F00F25681DFE817F00400EF006C
:1012A0004B01370013F0600FC3F341182DD1DB0958
:1012B0009DF8162000F09B80062A0FD0082A00F027
:1012C000888012BB8B490B708B4B4A701B789A0736
:1012D00044BF03230B70022286490EE09DF81830AC
:1012E000022B16D0032B64D0012B0ED1BDF81B307E
:1012F000002B00F06B81814912220DF11500FFF7E0
:1013000053FF0446062C40F0258105A8FFF766FC34
:101310000DE1BDF81B60002E00F05881092E28BF9A
:101320000926FFF71DFC4FF00909044654BB714C18
:1013300073493246204604F0DDF82771A4F8029084
:10134000FFF7F6FB18B1E37943F02003E371FFF7F1
:1013500007FC6C4BC3E900049E60BDF81B20DA60FB
:101360000020FFF76FF968498020FFF75FFC044613
:1013700020B966498020FFF705FF04460020FFF7EB
:1013800063F9BFE7CDF80C804FF0000A63680022D4
:10139000D3F804B02146012303A8D84730B9237AF3
:1013A0001F442368D1441C68FFB2BFE70AF1010A59
:1013B000ECE7BDF81B30002B00F00881BDF81910D8
:1013C0009DF8170000F08CF9014600289DD00278A6
:1013D00093E7464A1278052A03D1464A1370012240
:1013E0007AE7042A91D1434B83F80080F7E7032A78
:1013F0000FD0092A2BD0012A87D1BDF81730012B35
:1014000083D1FFF795FB60B13B4A137823F00203C9
:101410000FE0BDF81730012B7FF477AFFFF788FBA3
:1014200018B90F2402F0B4FDE3E0334A137843F017
:10143000020313702B68002B00F0C88002F0B2FD8D
:10144000044600287FF407AF02F062FDD1E0274B8D
:101450001B78043B012B01D90824E3E79DF81730E2
:101460002BB9FFF761FC0420FFF762FEE2E7012BD6
:1014700056D1FFF745FC0520F6E79DF8190003A9B2
:10148000FFF774FB064608B91024CBE79DF80C1053
:1014900005AAFFF783FB062804465BD19DF81520BB
:1014A00012F0600FBED1114B9DF80C1018789DF80A
:1014B0001630D2092CD07BB10A2BB3D10528CBD161
:1014C00030460192FFF716FC0A49019A08700DF1A7
:1014D0001500FFF769FE2AE00528BDD105490B80FC
:1014E0000222F4E764020020007002403C02002067
:1014F0005C02002068020020580200207C5C000092
:101500005D5C000040020020985C0000905C0000E0
:101510000B2B87D105289FD1BDF81730FF2B01D9A0
:1015200007247FE79DF817203046FFF795FB044618
:1015300010E09DF81900030706D19DF8153013F04F
:10154000600F0BD006246DE705A9FFF72AFB0628DC
:101550000446F2D0002C3FF46DAF63E79DF81620EF
:10156000344B9DF819401B78012A1DD0032A0CD05A
:10157000002AE7D1052B02D027077FF46DAF204664
:1015800002F092FC2C490880AAE72607DAD4BDF8BD
:101590001720002AD6D12007D4D0052B7FF45CAFCA
:1015A000204602F075FC45E72107CBD4BDF8172093
:1015B000002AC7D12207C5D0052B7FF44DAF2046A6
:1015C00002F074FC204602F021FF33E702F0D6FC63
:1015D00041E60020FFF7ACFD3DE64FF08043D3F835
:1015E000384414F0010401D00220F3E70120FFF792
:1015F0009FFD204609B0BDE8F08F0120EAE7C878DA
:1016000003283FF41EAE0D4E33688BB10022716883
:1016100032609847044600287FF404AF336823B152
:10162000AB78002B7FF417AE0EE702F0A7FCE0E7E3
:101630000E24F7E63C020020680200205C02002035
:1016400008B1402303600148704700BF68020020D2
:1016500070B54FF0805286B0D2F8A830D2F8A420EE
:1016600000926FEA83436FEA93430B4A0B4E9BB29F
:101670000D2102A803F014FF02AD002402A803F01C
:1016800095FF844201D306B070BD15F8013B06F802
:10169000013B0134F2E700BFA05C0000A80200207B
:1016A00010B50E4B53F8204023780BB9A01C10BD89
:1016B0000020FFF7C5FF013C00235A1CA15C39B98B
:1016C000DBB201335B00DBB243F440730380EEE72F
:1016D000D3B220F813101346EFE700BFF85C000008
:1016E000034608B9FFF7DCBF012807D0022805D060
:1016F000032803D0042801D0052809D1054800EBB0
:101700004303587820B1044B53F82030002BE9D123
:1017100000207047105D0000F85C0000C36903B151
:101720001847704703680022C3E91E22C3E920223C
:101730001A845A62DA6203F134025A677047CA693E
:101740009A4210B543600CD38C690460086F18444A
:101750000867D01A1C44C86100388C6118BF01208A
:1017600010BD01F1280202608B670020F8E758B92C
:101770000B681A7B202A09D1D3F80E209A615A8A65
:101780009A831A7D9A777047032070470620704726
:10179000F0B504680D7A002C00F08780A4F21334B1
:1017A0007C2C00F222837C2C00F21F83DFE814F0F3
:1017B00085008F009D00A900B500C100CD00D900B3
:1017C0001D031D031D031D031D031D03EF00FB006F
:1017D0001D031D031D031D031801240132011D03F8
:1017E0001D031D03450151017F011D031D031D0341
:1017F0001D03670173017F011D031D031D031D03ED
:101800001D031D038B011D031D031D031D039F01EC
:10181000AB01B701C301CF011D031D03DB01E701CC
:10182000F301FF010B021D031D031C0228023402F9
:1018300040021D031D034C025802640270027C0228
:101840001D031D031D031D031D031D031D031D0398
:101850001D031D031D031D031D031D031D031D0388
:101860001D031D031D039B02A7021D031D031D0372
:10187000C0021D031D031D031D03DD021D031D0307
:101880001D031D03DD021D031D031D031D031D0399
:101890001D03E902F5021D031D031D031D031303B0
:1018A0001D031D031D031D0313030824047123B925
:1018B00040F2133303600120F0BD0AB104791470C3
:1018C0000B24012B04710ED84FF44573F2E700246A
:1018D0000AB10679165501340E7D06719C4205D376
:1018E00040F21533E6E70124F2E700240AB1067955
:1018F0001655013402269C42067103D340F216337A
:10190000D8E700240AB106791655013402269C4214
:10191000067103D340F21733CCE700240AB10679ED
:101920001655013402269C42067103D34FF44673C8
:10193000C0E700240AB10679165501344E7E0671BF
:101940009C4203D340F21933B4E700240AB106796C
:101950001655013400269C42067103D340F21A3317
:10196000A8E700240AB1067916559D4E00270134D8
:1019700037709B4E3678AE4202D340F29A3399E7E5
:101980000926A342067103D840F2213392E70024CE
:101990000AB106791655013404269C42067103D318
:1019A00040F2223386E700240AB1067916558C4EA0
:1019B0000F7A3678DFF82CC2B74204F1010440F206
:1019C000188201F1090706EB460607EB060E9C425A
:1019D000BE5DCCF800E0067103D340F2273369E71F
:1019E00000240AB106791655013400269C4206717E
:1019F00003D34FF44A735DE700240AB10679165504
:101A0000784E36680134767806719C4203D340F2F2
:101A100029334FE700240AB106791655714E0F7D20
:101A200036683678B74204F101041ED102269C4282
:101A3000067103D340F22D333CE700240AB1067946
:101A40001655013402269C42067103D340F22E3310
:101A500030E700240AB10679165501344E7E06712E
:101A60009C4225D340F22F3324E78F7DB74223D108
:101A70000A269C42067103D34FF44D731AE70024E3
:101A80000AB106791655013400269C42067103D32B
:101A900040F235330EE700240AB1067916550134B9
:101AA00000269C42067103D340F2363302E700243D
:101AB0000AB10679165501340026A342067103D8EF
:101AC00040F23D33F6E600240AB106791655454E3C
:101AD0000F7D36683678B74204F1010440F0E980A2
:101AE00005269C42067103D340F24233E2E600240D
:101AF0000AB106791655013424269C42067103D397
:101B000040F24333D6E600240AB106791655013473
:101B100000269C42067103D34FF45173CAE6002499
:101B20000AB106791655013410269C42067103D37A
:101B300040F24533BEE600240AB106791655013459
:101B400001269C42067103D340F24633B2E60024DC
:101B50000AB106791655013405269C42067103D355
:101B600040F24933A6E600240AB10679165501343D
:101B700024269C42067103D340F24A339AE600249D
:101B80000AB106791655013401269C42067103D329
:101B900040F24B338EE600240AB106791655013423
:101BA00003269C42067103D34FF4537382E600244C
:101BB0000AB10679165501348E7D06719C4203D315
:101BC00040F24D3376E600240AB106791655013409
:101BD00004269C42067108D34FF454736AE600BF92
:101BE000B6020020B802002000240AB1067916557A
:101BF000013424269C42067103D340F2513359E646
:101C000000240AB106791655013402269C42067159
:101C100003D340F252334DE600240AB1067916553B
:101C2000013402269C42067103D340F2533341E64D
:101C300000240AB106791655013405269C42067126
:101C400003D340F2563335E600240AB1067916551F
:101C5000013424269C42067103D340F2573329E60F
:101C600000240AB106791655013406269C420671F5
:101C700003D34FF456731DE600240AB106791655B6
:101C800001340E7D06719C4203D340F2593311E6B4
:101C900000240AB10679165501348E7D06719C42E6
:101CA00003D340F25A3305E600240AB106791655EB
:101CB0000134534E36687778524E3770524E0027B3
:101CC0003770514E37784F4E3678B74204D34F4F66
:101CD0003E7801363E704CE60726A342067103D8D3
:101CE00040F26E33E6E500240AB106791655013458
:101CF00005269C42067103D340F26F33DAE50024D7
:101D00000AB1067916553E4E3F4F36683F7896F831
:101D100001C0BC4504F1010470D996F802C03E44EC
:101D20009C4216F80C60067103D340F27333C1E590
:101D300000240AB106791655314E0F7D3668367883
:101D4000B74204F1010406D103269C4206710DD36B
:101D50004FF45E73AEE58F7DB7420BD102269C42F5
:101D6000067103D340F27D33A4E500240AB106795D
:101D7000165501344026A342067103D84FF461730F
:101D800098E500240AB106791655013400269C42D4
:101D9000067103D340F285338CE500240AB106793D
:101DA0001655174E0F7D36683678B74204F1010498
:101DB00007D10E6A9C42367806710DD340F28A3301
:101DC00078E58F7DB7420BD100269C42067103D384
:101DD00040F28F336EE500240AB1067916550134BE
:101DE000094F3E7801363E706BE7002303601846CA
:101DF00062E50023CCF800301B78FFDE0023FBE710
:101E0000B8020020B5020020B7020020B602002070
:101E1000037A012B08D9427B012A00F10C0306D971
:101E2000827B13445878704700235B78FFDE0023E1
:101E30001B78FBE72DE9F0470B7888B005460E4686
:101E40000E2B1AD8DFE813F060003B016000600041
:101E500019000F00A60019001900380119006000D0
:101E60006000600060004A78D1094FEA521335D013
:101E700013F0030303D0012B21D006241BE002F052
:101E80001F02012AF9D1B478062CF6D105A80393D4
:101E9000FFF7D6FB03AB0093F27831790346074690
:101EA0002846FEF7F9FC052805D0039A3946701C30
:101EB000FFF77AF90446204608B0BDE8F087B3780A
:101EC000212BDAD1B6F80720072AD6D10168701C79
:101ED000183108B0BDE8F047FFF766B9012BCCD147
:101EE000B3780768202B11D0222BC6D1B6F8073063
:101EF000002BC2D13A8CB6F803303B8402F00102C9
:101F000003F001018A4220D10024D4E7B6F807305B
:101F1000072BB2D14FF4E462BA8100200E37CDE92D
:101F200005730790FEF78EFB05A90020FEF768FEFB
:101F3000044630B9684B03A9CDE90335FFF722F910
:101F400004460020FEF780FBB5E78CB2C1F1030127
:101F5000C9B2FFF7E3FB002CD6D12B7A012B40F25C
:101F6000B4806B7B05F10C02002B00F0B080AB7BE2
:101F7000D05C02F0B9F82846FFF74AFF02F0B4F847
:101F800007F13403C7E91E44C7E920447C62FC62C0
:101F90007B6790E7037A002B00F09B80837A00F147
:101FA0000901002B00F09380C27AB3788A5C9A42D0
:101FB000AAD01B06F77809D527B1032F14BF032435
:101FC000002478E70121FFF7A9FB9DE707F0FD0357
:101FD000012B99D0002F76D10668FFF719FF3F4BF0
:101FE000B46A059306F10C0381460693C4B9F36FF6
:101FF000B467C6E91F43F36A63B1D6E90B0106F182
:10200000240383E80300F46205A94846FEF70EFEA8
:10201000044600E0746200212846FFF77FFB4AE790
:10202000D6F884A0706A544528BF544606F1340897
:102030002246414603F05EFAF36F2344C6E91F735C
:10204000AAEB0403B367F36A444474672BB306F145
:10205000240406F12C0898E8030084E80300B36F19
:10206000706AF7621BB9736A002BCDD116E0B26AB1
:10207000716F9A4214D803F03DFAB36AB26FC6F892
:102080008030D21AB267726F1A44726700212846F4
:10209000FFF744FBF36A002BDDD173620024BAE73B
:1020A0001A4603F027FAB26FB36AF2679B1AB3625B
:1020B000736A13447362D6E70321FFF72FFB2846A8
:1020C000FFF730FB20E70324F5E66378FFDE1B789B
:1020D000FCE75B78FAE700BF6F1700003F170000CE
:1020E0001FB503681B8CDC0714D5037A012B13D9A9
:1020F000437B00F10C0493B1837BE05C9306CDE954
:1021000001120CBF0123002301A90393FEF778FD00
:1021100004B010BD0820FBE700235B78FFDE1B78CE
:10212000FCE70368D3F8800070470000F7B5046847
:10213000238CDB070F4616463BD5656A002D32D14E
:10214000A16F91420ED3616F384603F0D3F9A36FAC
:10215000C4F880609B1BA367636F334463672846A2
:1021600003B0F0BDC4E90972FFF752FE134B0093B0
:1021700004F10C030646019369B10A463846616FC3
:1021800003F0B8F9A36FA26AD21AA262626AC4E924
:102190001E531A44626269463046FEF747FD002826
:1021A00008BF9220DCE7E36A2BB9C4E90B12922046
:1021B000D6E70820D4E71120D2E700BF3F17000080
:1021C00010B561B1B2FBF3F403FB1424A4B244B91B
:1021D000C0E9001484608281C381204610BD0E20B6
:1021E000FCE70920FAE737B550E8013F9DB2C48902
:1021F00025448489A54228BF2D1B0489A54202BF1E
:10220000BFF32F8F002207E0C5EA030540E8015421
:10221000002CE9D14FF001028DF803200193019ABF
:102220000A609DF8031001F0FF0321B1006810FA65
:1022300082F003B030BD1846FBE70A884B889A420B
:1022400009D150E8012FC2EA024240E80123002BE5
:10225000F7D1012070470020704737B550E8023FA2
:102260001FFAA3F5C488A54202BFBFF32F8F002237
:102270000DE0C48925448489A54228BF2D1BC3EAEB
:10228000054540E80254002CE8D14FF001028DF8DA
:1022900003200193019A0A609DF8031001F0FF03E7
:1022A00021B1006800EB124003B030BD1846FBE7D7
:1022B0000A884B889A4209D150E8022FC2EA22428A
:1022C00040E80223002BF7D101207047002070471F
:1022D000074B1B5C1F2B86BF064903F01F034FF003
:1022E000A041012202FA03F3C1F80835704700BF8C
:1022F000305D00000003005008B50020FFF7E8FF44
:102300000120FFF7E5FF0220FFF7E2FFBDE80840EC
:102310000320FFF7DDBFC20710B504460CD54FF010
:10232000A0430322C3F83427C3F83827C3F83C2757
:10233000C3F84027FFF7E0FFA3070AD54FF0A043FB
:102340000C22C3F82C27C3F83027C3F86027C3F842
:10235000642710BD1FB503788DF8003043680193E2
:1023600083688DF80830C368054A0393054B6846B7
:1023700053F8213052F82110984705B05DF804FB5E
:10238000BC020020C40200201FB503788DF8003085
:102390004368019383688DF80830C368054A039346
:1023A000054B684653F8213052F82110984705B084
:1023B0005DF804FBBC020020C4020020F0B5194BFC
:1023C00090F800C0DFF86CE043F82C20164B16465E
:1023D0000A6943F82C204B7F0EF80C300C46074658
:1023E0000FCC89B06D460FC594E80F0085E80F004B
:1023F0003B78CDF810C01EF803304BB1002E0B4ACD
:10240000694608BF3246381D00F07CFB09B0F0BDBC
:10241000002E074A694608BF324607F10C0000F05B
:1024200027F9F3E7C4020020BC0200205523000076
:1024300089230000CC02002010B5034653E8000FAA
:1024400000EA010243E8002494F0000FF6D110BD29
:10245000014B1B68184700BFD002002038B50B4B5A
:1024600098420C4601D0002038BD0020FEF7EAF863
:10247000074B1D7915B901221C601A710020FEF767
:10248000E3F8002DEFD01120EEE700BF0020004060
:10249000D00200200023435082B043580193019B97
:1024A00002B070470A4610B54FF48E71FFF7F2FF85
:1024B000136A9168C95C136A01331362C0F81C1572
:1024C00010BD024608B500684FF49271FFF7E2FFB5
:1024D00010684FF48471FFF7DDFF136801221A6062
:1024E00008BD8B690A4610B54FF4847123B9FFF714
:1024F000D1FFD0F8183510BDFFF7CCFF536AD16873
:10250000D0F81805C854536A01335362F3E700004A
:102510001FB501238DF80030044BCDE90110D3E93C
:1025200000126846904705B05DF804FBD802002011
:1025300030B54D4DD5F804339A0585B051D5D5F851
:102540002431002B4DD04FF492712846FFF7A2FFA3
:102550004FF40173C5F80833444B93F829200AB9A6
:1025600001226A60404902228DF80020D1F88024BF
:10257000C1F8802403929A690292DA6801920022DB
:10258000C3E906226846D3E9001290473648D0F8DE
:102590001C315BB1354A5169136A99424DD992F8A1
:1025A0002830002B49D11146FFF77CFF2E48D0F888
:1025B0004431002B56D04FF4A271FFF76BFF2B4B29
:1025C00093F829200AB1012202609A69002A49D0B1
:1025D000586AD96800229A6105B0BDE83040FFF71B
:1025E00097BFD5F804335B07D0D5D5F80831002B59
:1025F000CCD01E4C1C482146FFF773FF636AA269CA
:102600009A42C3D1E369E1684BB1A3612369E360F6
:102610000023606AE3616362FFF77AFFB6E794F82C
:1026200029300BB901236B600F4B4FF40172C3F8D3
:1026300008230023606AA361EEE70B484FF48E7114
:10264000FFF728FF5369002BB0D051690291002396
:1026500091688DF80030019153616846D2E900130A
:102660009847A3E705B030BD00200040D802002005
:102670002DE9F843604D90F804802C2303FB0853A8
:10268000064693F82A300C469146002B40F0AF8066
:102690005A490068FFF7E2FE0746002840F0A9808B
:1026A0002268531C10D01F2A87BF554902F01F0310
:1026B00013464FF0A0410120984003F5E073C1F8A4
:1026C0000805032041F823006168481C0DD01F292C
:1026D0008BBF01F01F030B4649484FF0A04003F5A4
:1026E000E0734FF0000C40F823C03068A369C0F8D5
:1026F000243594F814C0637DBCF1010F4CEA030348
:10270000C0F86C35C0F81415C0F80C252BD1A3689F
:10271000591C0DD01F2B8BBF03F01F021A463849DE
:102720004FF0A04102F5E0724FF0000C41F822C0DA
:10273000E1684A1C13D01F2987BF314A01F01F0CE2
:102740008C464FF0A0424FF0010E0EFA0CFE0CF535
:10275000E07CC2F808E54FF0030E42F82CE0C0F828
:102760000815C0F810352C2202FB08F2AB18C3F88C
:1027700004902369AB50B9F1000F20D04FF48E7153
:10278000247FFFF787FE4FF4A2713068FFF782FEC7
:1027900032681C4BC2F80433130B42F30732610159
:1027A000002AC9B21EDB1848841884F800130121DE
:1027B000520903F01F0301FA03F340F82230336893
:1027C0000422C3F800252C2303FB08530022C3E98D
:1027D000062283F829205A61012283F82A203846EC
:1027E000BDE8F883094A03F00F03D154E7E708274F
:1027F000F5E71127F3E700BFD802002031250000DC
:10280000000300508000020000E100E014ED00E051
:102810000279044B2C2101FB02335869003818BFA0
:1028200001207047D80200202DE9F84F064690F8A5
:10283000048089469246FFF7EBFF044600283CD10E
:10284000204F2C2508FB057B4FF48E71CBF814A08C
:10285000CBF80890CBF820008BF828003068FFF701
:1028600019FE3068012383605946FFF71BFEDBF831
:1028700004305D461BBB3068DBF814402B6A9C4279
:1028800011D83368D3F81C21002AFBD00122DA606A
:1028900000202C2303FB087700237B61BDE8F88F21
:1028A00095F828303BB9D0F81C31002BF8D05946A8
:1028B000FFF7F8FDE2E70F20EBE71120EEE72046F7
:1028C000ECE700BFD80200202DE9F0473A4D077928
:1028D0002C2303FB075306465C6824B103684FF4BE
:1028E0000170C3F808032C2303FB0753986950B108
:1028F000D869002841D024B133684FF40172C3F87D
:102900000423112436E09A61D9605862D8612C23DF
:1029100003FB075393F829301BB910B93046FFF772
:10292000D0FD4FF02C0808FB075A3068DAF8043065
:10293000002B37D14FF4A271D046FFF7ABFD3068C2
:10294000D0F82491D0F80831D0F84441CBB914B96B
:10295000B9F1000FF3D02C2303FB07550023AB6123
:10296000B9F1000F24D12CBB95F82910336801224E
:10297000B1B11A602046BDE8F0871961DA61012023
:10298000C5E7B9F1000FE6D1002CE4D14146FFF7CD
:10299000A8FDDAF82430DAF818209A42CFD8DAE71E
:1029A0005A60E7E74FF40173C0F804330024E1E70D
:1029B0000324DFE70F24DDE7D80200200023435083
:1029C00082B043580193019B02B070471FB50123A9
:1029D0008DF80030044BCDE90110D3E900126846B0
:1029E000904705B05DF804FB040300207FB5434A1F
:1029F000D2F82461002E60D010464FF49271FFF798
:102A0000DDFF02238DF80030D2F88034C2F8803424
:102A10000393D2F83C350293394BDA6801920022D5
:102A2000C3E906226846D3E9001290473348D0F83C
:102A3000443173B14FF4A271FFF7C0FF304B9A6974
:102A40003AB10022C3E90622D968D0F83C05FFF765
:102A5000BDFF2A48D0F82031ABB14FF49071FFF799
:102A6000ADFF0123C360264B5A6962B1D0F84C1503
:102A70000291002299688DF8002001915A61684600
:102A8000D3E9001290471D48D0F858319BB14FF45C
:102A9000AC71FFF793FF1A4B5A6962B1D0F84C152D
:102AA0000291002299688DF8002001915A616846D0
:102AB000D3E90012904704B070BDD2F81031002B5A
:102AC000B4D04FF488711046FFF778FF0C4BD2F862
:102AD0003C0599698842A9D1DC69D96864B1D2F80A
:102AE000005225F02005C2F800521A699C61DA6094
:102AF000DE61FFF76BFF99E79C61FAE70020004079
:102B0000040300202DE9F843664E90F80480242346
:102B100003FB0863044693F820300D469146002BD2
:102B200040F0BC8060490068FFF798FC0746002829
:102B300040F0B68029684B1C10D01F2987BF5B4A24
:102B400001F01F030B464FF0A0420120984003F50F
:102B5000E073C2F80805032042F823006A68501C9D
:102B60000DD01F2A8BBF02F01F0313464F484FF0B2
:102B7000A04003F5E0734FF0000C40F823C020683C
:102B8000AB69C0F8243595F814C06B7DBCF1010F1A
:102B90004CEA0303C0F86C35C0F80C15C0F81425D6
:102BA0002BD1AB68591C0DD01F2B8BBF03F01F021C
:102BB0001A463E494FF0A04102F5E0724FF0000C7A
:102BC00041F822C0E9684A1C13D01F2987BF374A41
:102BD00001F01F0C8C464FF0A0424FF0010E0EFA90
:102BE0000CFE0CF5E07CC2F808E54FF0030E42F84D
:102BF0002CE0C0F80815C0F81035242202FB08F2BA
:102C0000B318C3F804902B69B350B9F1000F2FD05B
:102C10004FF488712A7FFFF7D1FE20684FF490713E
:102C2000FFF7CCFE20684FF49271FFF7C7FE2068D3
:102C30004FF4A271FFF7C2FE4FF4AC712068FFF7AA
:102C4000BDFE23681A49C3F80413190B43F3073375
:102C50005201002BD2B21CDB1648C51885F80023A0
:102C600001225B0901F01F0102FA01F140F8231073
:102C700023680822C3F80025242303FB08660023E9
:102C8000C6E906337361012386F820303846BDE873
:102C9000F883094B01F00F015A54E9E70827F5E7DB
:102CA0001127F3E704030020ED2900000003005082
:102CB0001003420000E100E014ED00E00279044B53
:102CC000242101FB02335869003818BF01207047E6
:102CD0000403002001F06043B3F1005F2DE9F047E9
:102CE0000646884692463BD190F80490FFF7E6FFEF
:102CF0000446002836D11D4F3068242505FB097590
:102D00004FF49071C5F814A0C5F80880FFF756FE7F
:102D10004FF4AC713068FFF751FE33686A69A968F7
:102D2000C3F84415C3F8482501229A606A68DAB9E5
:102D3000D3F82021D3F858011AB90028F8D00F2071
:102D400007E00028FBD10122DA60D3F85821002ADD
:102D5000FBD0242303FB097700237B61BDE8F087C8
:102D60001020FBE71120F9E72046F7E704030020D5
:102D7000F8B501F06043B3F1005F04460F465ED141
:102D80000379304D242101FB0351496821B10068CA
:102D90004FF40476C0F80863242000FB03539E69B7
:102DA00056B1D869002839D021B123684FF4047294
:102DB000C3F80423112030E09A61DF60DE612068EF
:102DC0004FF48871FFF7FAFD20684FF4A271FFF706
:102DD000F5FD2368C3F83475C3F8382516BB012206
:102DE0001A602479242202FB045252680ABBD3F8E9
:102DF0001011D3F84421D3F82401114302D1002843
:102E0000F5D00A46242303FB04550023984218BF3B
:102E100003209A42AB6118BF0F20F8BD1F61DA6131
:102E20000126CCE7D3F8002242F02002C3F80022AA
:102E3000D7E74FF40472C3F804230020EDE7102015
:102E4000EBE700BF0403002038B5074C051E04F172
:102E5000080318BF1C4623682BB11A6822605B6800
:102E600028469847F7E738BD3003002020B9054BC6
:102E700001225A70FFF7E8BF012802D1014A907081
:102E8000F8E770472803002038B50C4C23789BB92D
:102E90000B486360A3602361E36000F0B7F8054668
:102EA00000F0C0F801232370064BD3F800340BB1B7
:102EB0000123A370284638BD8525F5E728030020A7
:102EC0006D2E00000000014038B5134CA378054674
:102ED00003F0FF0073B115B16B6801209847002023
:102EE000FDF7B0FBE3680133E3600020BDE8384044
:102EF000FDF7AABBFDF7A6FB25B1226913463BB936
:102F00002A602561E368002BECD100F0A1F8E9E725
:102F10009D42F7D01B68F2E7280300204FF0804362
:102F2000D3F81804C0F300407047000038B5134CC4
:102F30006378054603F0FF0073B115B16B6800209C
:102F400098470020FDF77EFB636801336360002033
:102F5000BDE83840FDF778BBFDF774FB25B1A268EA
:102F600013463BB92A60A5606368002BECD100F0E2
:102F70007CF8E9E79D42F7D01B68F2E728030020C0
:102F800038B5084C0020FDF75DFB6368013B6360CA
:102F9000656815B900F076F86570BDE83840002026
:102FA000FDF752BB2803002010B5074C23784BB91E
:102FB000064B002808BF184600F0B4F808B90123F2
:102FC000237010BD8520FCE73C030020345D000029
:102FD00008B500F0D6F8BDE8084000F0D9B807B54C
:102FE0000190FFF7F5FF019800F0BEF800F0C2F87D
:102FF000002003B05DF804FB00F18040002382B0A4
:10300000036003680193019B02B07047044A13797F
:1030100023B90121106091801846704785207047C0
:1030200040030020084B1A68D20704D4C02283F85A
:10303000002301221A604FF080420123C2F81835A4
:10304000024A1370704700BF00E100E0480300200F
:1030500008B54FF48270FFF7CFFF4FF08043022294
:10306000C3F8042301229A6008BD08B54FF48070AC
:10307000FFF7C2FF4FF080430122C3F804231A6018
:1030800008BD00004FF08042012108B54FF4807068
:10309000C2F80813FFF7B0FF5160D2F80C3403F008
:1030A0000113B3F1011FF8D0014B00225A7108BD82
:1030B000400300204FF0804110B5D1F8003163B1DA
:1030C0004FF48070FFF798FF0D4B58790122C1F83B
:1030D000082310B95A711B6898474FF08042D2F804
:1030E000043163B14FF48270FFF786FF0223C2F808
:1030F0000833034BBDE810401B680120184710BD82
:103100004003002000F1804382B01A68002A14BFF7
:103110000120002004D000221A601B680193019B4B
:1031200002B070470E4A1378C3B903784FF080415C
:10313000C3F34003C1F88035037803F00103C1F8FD
:103140007835084B1968C90704D4C02183F80013E7
:1031500001211960012313700020704785207047FA
:103160005803002000E100E0014B02681A6070473C
:10317000540300204FF080434FF46072C3F80423DF
:1031800070474FF080434FF46072C3F808237047D4
:10319000014B00221A607047540300204FF0804317
:1031A00010B5D3F80443620707D54FF48470FFF7D6
:1031B000A9FF10B11E4B1B689847A30608D54FF412
:1031C0008A70FFF79FFF18B11A4B00201B689847C1
:1031D000600608D54FF48C70FFF794FF18B1154BBB
:1031E00001201B689847210608D54FF48E70FFF721
:1031F00089FF18B1104B00201B689847E20508D5DD
:103200004FF49070FFF77EFF18B10B4B01201B6845
:103210009847A3050AD54FF49270FFF773FF28B1C2
:10322000054BBDE810401B680220184710BD00BFC9
:103230004C030020500300205403002008B5FFF782
:10324000ADFFBDE80840FFF735BF0000020713D40B
:1032500000F00F0310F0800F084A0BBF03F58873CE
:1032600003F5847302EB830352F8230008BF586808
:10327000431E58425841704700207047007002407A
:1032800010F0080F074B06D0D3F8C00410F4803FAD
:1032900018BF0020704700F00F0000F5947053F83D
:1032A00020007047007002404FF08053D3F8300187
:1032B000A0F1080358425841704700004FF0805376
:1032C000D3F83021082A06D1D3F83431052B04D89D
:1032D000034AD05C7047002070470120704700BF50
:1032E000355D000030B54C680D689C4229BFC0E9CF
:1032F00000530021E41AED1832BFC0E900514C60C0
:103300000D60934203D1201E18BF012030BD002064
:10331000FCE74B6810B59A420C6828BF1A46C0E912
:103320000042981A0B6848601A4400380A6018BFB7
:10333000012010BD30B54C680B68A24228BF224660
:10334000002A14BF1D460025C0E90052A4EB020468
:103350001A444C600A6014BF0120002030BD0000F8
:10336000054B10F0800FA3F1900208BF134600F048
:103370000F0003EB00107047CC04002010F0800F0A
:1033800014BF0023102300F00F0018447047000002
:1033900008B5FFF789FF18B1034B0022C3F81C2CB6
:1033A000024B00221A7008BD007002405A03002030
:1033B00007B5094A00231370084AADF805301370A9
:1033C0008DF8073001238DF80430054B01A81B68E8
:1033D000984703B05DF804FB590300206005002006
:1033E0005C050020704700004B68934228BF1346DD
:1033F00070B51D46094B0C4606462A460968184614
:1034000002F078F8C6E9000560682268401B606039
:103410002A440038226018BF012070BD64050020D6
:103420004B68934228BF134670B506460D461C46AE
:103430008BB10A4B09682246184602F05BF83060EF
:103440006B6874601B1B6B602B68201E23442B6011
:1034500018BF012070BD0360F2E700BF64050020C3
:1034600008B50020FDF7EEF80A4BD3F8001C032244
:1034700061B949F27531C3F8001CC3F8142DC3F8C3
:10348000001CBDE808400020FDF7DEB8C3F8142D8D
:10349000F7E700BF00E0064008B50020FDF7D2F8CE
:1034A0000A4BD3F8001C61B949F27532C3F8002CFD
:1034B000C3F8141DC3F8002CBDE808400020FDF738
:1034C000C3B80022C3F8142DF6E700BF00E00640A1
:1034D00008B50146FFF75CFF0846FFF741FF827B16
:1034E000032A0AD10846FFF749FF01218140BDE8C0
:1034F00008400448C943FEF79FBF0368002BF1D082
:1035000008BD00BFC80300208720FFF7E1BF862069
:10351000FFF7DEBF8520FFF7DBBF8420FFF7D8BFB2
:103520008320FFF7D5BF8220FFF7D2BF8120FFF7AE
:10353000CFBF000008B5FFF72BFF084B93F89E2084
:10354000032A06D1BDE8084005486FF00101FEF7E7
:1035500073BFD3F89030002BF4D008BD3C0400209A
:10356000C8030020012273B502FA01F51E491F4E5F
:103570000B6810F0800F43EA050304460B6027D068
:1035800000F00F021A4B33F8123003F1804303F5B9
:103590001C331A684AB100221A60BFF36F8FBFF361
:1035A0004F8F802811D0FFF793FF316829400AD14F
:1035B00006238DF804308DF806408DF807100D4B6A
:1035C00001A81B68984702B070BDFFF7B3FFECE796
:1035D00033681D42F7D106238DF804308DF80600BC
:1035E0008DF80720EBE700BF38040020C803002057
:1035F000445D00005C05002008B5054B1A781046B4
:10360000FFF7BCFEBDE8084001461046FFF7AABF21
:1036100060050020FFF78EBF07B500238DF804304A
:103620000B4BD3F82025ADF80620D3F8C034094A57
:10363000002B13680CBF4FF480714FF001210B4336
:103640001360054B01A81B68984703B05DF804FBA5
:1036500000700240380400205C05002007B5FFF729
:1036600097FE0D4B93F88E20032A11D0D3F88030AB
:1036700073B90A486FF08071FEF7DEFE06238DF8FD
:1036800004300823ADF80630054B01A81B689847A5
:1036900003B05DF804FB00BF3C040020C803002019
:1036A0005C05002007B5FFF773FE114B93F81E2150
:1036B000032A07D10F486FF4807103B05DF804EB63
:1036C000FEF7BABED3F8103173B90A486FF48071AF
:1036D000FEF7B2FE06238DF804308823ADF80630DD
:1036E000054B01A81B68984703B05DF804FB00BFB9
:1036F0003C040020C80300205C0500202DE9F04FA9
:103700005D4E337885B0002B6DD15C4C5C4B1968F5
:103710002368194067D011F0012367D093FAA3F111
:10372000002966D0B1FA81F10F2964D9A1F11008FE
:103730005FFA88F84046FFF713FE4FF0010B4FFA8F
:1037400088FA0BFA01F1BAF1000F81466FEA010B1A
:1037500054DA03688289416802A8984708B9C9F811
:103760000000FFF7A1FD18B1464B8222C3F81C2CC4
:1037700001232168039A3370D9F8083001EA0B015C
:103780001344BAF1000F2160C9F8083008F00800AE
:1037900002993C4B08F00F085EDA002854D0C3F8B9
:1037A000A016C3F8A426042303EB880303F1804387
:1037B00003F51C3301221A60BFF36F8FBFF34F8FE5
:1037C000314B324A2F4913EA2A0338BF134633F8E4
:1037D000183003F1804303F51C331A681AB9D1F885
:1037E0000021002AF9D005B0BDE8F08F91FAA1F1CF
:1037F00096E720219AE741F080089BE74046FFF7D3
:103800003FFDB9F80C20D9F80410D9F80050034650
:10381000074602A8A847029A002A9FD0039A974217
:103820009CD9022789F80E7059461548FEF704FE08
:1038300006238DF80430164B8DF806801B688DF832
:10384000077001A8984761E7142000FB0833C3F80C
:103850000016C3F80426A6E728B1C3F8A017C3F8DA
:10386000A4272823A0E7142000FB0833C3F800177F
:10387000C3F80427F5E700BF5A03002038040020EE
:10388000C803002000700240445D0000605D00003D
:103890005C05002037B50446FFF77AFD2046FFF7A8
:1038A0005FFD837B032B0DD12046FFF767FD0121D0
:1038B0008140C9430F48FEF7BFFD03B0BDE830406B
:1038C000FFF71CBF0568002DF7D12046FFF756FD16
:1038D00001218140C9430748FEF7AEFD06238DF85C
:1038E0000430054B8DF806401B688DF8075001A881
:1038F0009847E2E7C80300205C0500200720FFF797
:10390000C9BF0620FFF7C6BF0520FFF7C3BF0420CD
:10391000FFF7C0BF0320FFF7BDBF0220FFF7BABF0C
:103920000120FFF7B7BF000038B5134BD3F86C4444
:10393000C3F86C44BFF36F8FBFF34F8F01251CB9E1
:10394000BDE83840FFF7DABE94FAA4F171B1B1FADC
:1039500081F30F2B19460BDDA1F11000C0B205FA5F
:1039600001F324EA0304FFF7FDFDE8E72021F3E774
:1039700043F08000F3E700BF00700240254B13B511
:10398000D3F80044C3F80044BFF36F8FBFF34F8FE9
:10399000BFF36F8FBFF34F8FE1050ED51E4B012292
:1039A0001A700023ADF805308DF8073002238DF82A
:1039B00004301A4B01A81B689847A2050DD5164A7A
:1039C00000231370ADF805308DF8073003238DF810
:1039D0000430124B01A81B689847630518D50E4A9E
:1039E0001378ABB1002313700A4A0121C2F80815FD
:1039F0009165BFF36F8FBFF34F8FADF805308DF832
:103A0000073004238DF80430044B01A81B68984745
:103A100002B010BD00700240590300205C05002078
:103A2000024A00231360024A137070475C050020AD
:103A30005B03002008B5454B4FF40062C3F8002437
:103A4000BFF36F8FBFF34F8FFFF738FC08B1FFF75D
:103A500007FDFFF729FC98B10020FCF7F3FD3C4B74
:103A6000D3F8001CC022002967D149F27531C3F890
:103A7000001CC3F8142CC3F8001C0020FCF7E4FD64
:103A8000324B0122C3F80025BFF36F8FBFF34F8F76
:103A9000D3F800241205FBD54FF40062C3F80024CC
:103AA000BFF36F8FBFF34F8FFFF7FEFB90B1002086
:103AB000FCF7C8FD264BD3F8001C002940D149F281
:103AC0007532C3F8002CC3F8141CC3F8002C002076
:103AD000FCF7BAFDFFF7F2FB30B1FFF7DDFCFFF7B3
:103AE000EDFB08B1FFF7BCFCFFF7DEFB174B50B155
:103AF00040F2E372C3F800284022C3F80428BFF361
:103B00006F8FBFF34F8F00218022C3F81C25C3F8AD
:103B10003015104B40F2FF121A600F4B1960FFF77F
:103B200037FC0E4B19700E4B02221A70FFF7C6FBC2
:103B300050B1BDE80840FFF7AFBCC3F8142C9CE7B8
:103B40000022C3F8142CC2E708BD00BF0070024079
:103B500000E0064038040020C80300206005002073
:103B60005B0300200C4B00221A700C4A0C4B0028FF
:103B700018BF13460B4AC2F804330B4BC02183F81D
:103B80002713802159600123C2F80435BFF36F8FDA
:103B9000BFF34F8F704700BF590300200714E001A7
:103BA0000714C0010070024000E100E0024B1878E9
:103BB000003818BF012070475B030020034B1878C2
:103BC000012894BF00200120704700BF5B03002044
:103BD00010B50020FCF736FD134B1B7803F0FF04F3
:103BE000BBB1124AD2F82C35DBB10023C2F82C3518
:103BF000FFF75AFB68B10E4BD3F8001CC02269B91D
:103C000049F27531C3F8001CC3F8142CC3F8001C2A
:103C100004460020FCF718FD204610BDC3F8142C04
:103C2000F6E71C46F5E700BF59030020007002408C
:103C300000E00640024B034AC3F80823704700BF68
:103C40000070024004148001024B034AC3F80423AD
:103C5000704700BF0070024004148001014B002235
:103C60001A7070475903002008B5FFF779FB81816E
:103C700008BD000073B51D4B1C78002C33D11C4AC5
:103C8000106001221A702546264615F0080F65F0CF
:103C90007F00C0B20CBF40214FF400710190FFF7CC
:103CA000E3FF0198FFF75CFB0135092D8673066081
:103CB0008660EAD1402100252046FFF7D5FF204647
:103CC000FFF74EFB0134E4B2092C85730560856073
:103CD00002D1002002B070BD14F0080F14BF4FF4E1
:103CE00000714021E8E70820F4E700BF5B030020F3
:103CF0005C05002008B5FFF733FB808908BD000094
:103D0000064A10F0800F00F00F0314BFD2F8100520
:103D1000D2F81405D84000F001007047007002404E
:103D20002DE9F047804600208A46FCF78BFC18F00E
:103D30000F0503D1294B1B7843454AD1284B294F06
:103D40001C683E684046FFF719FBE443A4B24FF0FD
:103D50000109344309FA00F914EA09043BD1404649
:103D6000FFF7FEFA0C2218F0800F034602FB05F560
:103D70002BD01D4ADAF80010154401F06041DAF842
:103D80000820B1F1005F02F0010219D1B2B9174A5F
:103D90001A609AE8070085E8070000229A609A7383
:103DA0005D60134B46EA090680223E60C3F8042199
:103DB0000020FCF749FC2046BDE8F0870D4AE7E704
:103DC0000AB90D4AE4E70D4AE2E70D4A15440D4AE7
:103DD000DEE71024ECE71124EAE700BF60050020CD
:103DE00038040020C8030020CC0300201333000057
:103DF00000E100E035330000E93300002134000029
:103E00005C030020E53200002DE9F0410746002068
:103E10000E46FCF717FC3B0703D1174B1B78BB4240
:103E200025D1164B16491C680D683846FFF7A6FACF
:103E3000E443A4B201232C4303FA00F814EA080473
:103E400017D13846FFF78CFA336803607368436014
:103E50000C4B846045EA0805802284730D60C3F82A
:103E600004210020FCF7F0FB2046BDE8F08110247F
:103E7000F7E71124F5E700BF6005002038040020B3
:103E8000C803002000E100E00048704764050020FE
:103E9000044B40F48070C3F81805BFF36F8FBFF375
:103EA0004F8F704700700240FFF7D0B9064BC3F840
:103EB0000C05BFF34F8F40F48070C3F80C05BFF3BF
:103EC0006F8FBFF34F8F7047007002400023036075
:103ED00043600E4BD3F880240270D3F884244270E0
:103EE000D3F88824D3F88C1442EA01224280D3F814
:103EF0009024D3F8941442EA01228280D3F89824C3
:103F0000D3F89C3442EA0323C38070470070024018
:103F1000034B0122DA64BFF36F8FBFF34F8F7047FB
:103F20000070024013B5FFF733FA114B9A7B032A56
:103F300007D110486FF4803102B0BDE81040FEF7A1
:103F40007BBA1C687CB96FF480310A48FEF774FABA
:103F500006238DF80430084BADF806401B6801A815
:103F6000984702B010BD02B0BDE81040FFF7D0BFC7
:103F70003C040020C80300205C050020034B012204
:103F80001A65BFF36F8FBFF34F8F70470070024009
:103F9000034B01225A65BFF36F8FBFF34F8F7047FA
:103FA00000700240014B1878704700BF6005002088
:103FB00010B504460020FCF745FB2046FFF7DEF96C
:103FC0000D4901220B6802FA00F023EA000314F005
:103FD00008020B600AD104F00F04084B04F5947436
:103FE00043F82420BFF36F8FBFF34F8FBDE810401D
:103FF0000020FCF729BB00BF3804002000700240FD
:10400000F7B504460020FCF71DFB2046FFF7A8F992
:1040100005462046FFF7B2F9012214F0800F02FA9C
:1040200000F22D4818D1036832EA03010AD0204675
:10403000FFF7BEFF0323AB73002003B0BDE8F040E1
:10404000FCF702BB23EA020329600360234B1868D4
:1040500020EA02001860EDE7230715D4802C204BDE
:104060002ED004F00F0101F2DA314900C3F8001834
:10407000D3F80418D3F80468C9B241F002013143FF
:10408000C3F80418D3F80438144E0168336861EAA1
:1040900003071742D0D0134321EA02013360002303
:1040A00001602B600323AB738DF807300D4B8DF847
:1040B000064006221B688DF8042001A89847BBE73C
:1040C00040F2B471C3F80018D3F80418D3F80468A8
:1040D000C9B241F00401D2E7C8030020380400202F
:1040E000007002405C050020FFF78ABF73B5184BD3
:1040F000184CD3F880542368174EDA43174B3178A5
:104100001B6892B208461A43FFF738F9012303FAF5
:1041100000F0104202D00846FFF772FF6FF0011165
:1041200005F080050D483570FEF786F9236843F0E9
:10413000010323600023ADF805308DF80730052317
:104140008DF80430064B01A81B68984702B070BD7B
:10415000007002403804002060050020C8030020E1
:104160005C0500201C4BD3F8041300232DE9F0411B
:1041700001241D4671B9194F03F4000623F400040D
:104180004FF00108D4B9FFF7B9FA1EB3BDE8F0410A
:10419000FFF7ACBF91FAA1F21148B2FA82F2960091
:1041A000304404FA02F206682EB10560BFF36F8F47
:1041B000BFF34F8F134321EA0201DBE794FAA4F522
:1041C000B5FA85F557F8253008FA05F5984724EA39
:1041D0000504D7E7BDE8F08100700240745D00007F
:1041E00000710240F8B5134E134B34681B68240C61
:1041F00024041C4301271CB940F2FF133360F8BDAF
:1042000094FAA4F585B1B5FA85F30F2B1D460DDDA3
:10421000A5F11000C0B2030701D4FFF7F1FE07FAC1
:1042200005F524EA0504E6E72025F1E743F08000E0
:10423000F1E700BF38040020C803002038B50E4C59
:104240008025C4F8845163681B0613D5FFF7CAFFA5
:104250000A4B0022C3F80425BFF36F8FBFF34F8FC3
:10426000C4F88450BFF34F8FBFF36F8F4FF0FF320E
:10427000C3F8082338BD00BF00E100E00070024031
:1042800008B5FFF7DBFF094BD3F80423C3F8082375
:104290000022C3F80025BFF36F8FBFF34F8FFFF7E6
:1042A00077F8034B01221A7008BD00BF007002406E
:1042B0005B03002010B50020FCF7C4F90E4B1B78FF
:1042C00003F0FF042BB900240020FCF7BDF92046C1
:1042D00010BDFFF787FF094AD2F8003413F40073CA
:1042E000F1D10121C2F82C15D2F80014890544BF80
:1042F000C2F82C351C46E7E7590300200070024045
:1043000010B50446FFF77CFE134A04F00F0064B2B8
:10431000002C4FF00103B4BFD2F81015D2F81415D9
:1043200003FA00F36FEA0303B5BF0B400B40C2F87A
:104330001035C2F81435BFF36F8FBFF34F8F074AA4
:10434000074B13EA240338BF13461A5C012393403A
:10435000014AC2F8083310BD00700240565D0000EB
:104360003B5D000038B5254A254B45B2002DA8BF5E
:10437000134600F00F010446585C224A4FF0010337
:1043800003FA00F0C2F804032ADAD2F81005C84094
:10439000C00731D4D2F810058B400343C2F8103562
:1043A000BFF36F8FBFF34F8F31B3002D24DB14F0B9
:1043B000080521D12846FCF745F92046FFF7F8FD0E
:1043C0002046FEF7DBFF104901220B6802FA00F0DD
:1043D00023EA00030B602846BDE83840FCF734B9F7
:1043E000D2F81405C840C00706D4D2F814058B4093
:1043F0000343C2F81435D3E738BD00BF565D000053
:104400003B5D000000700240C8030020030610B5A9
:10441000044605D4FEF71AFF10B12046FFF7C8FD89
:10442000034BC3F81845BFF36F8FBFF34F8F10BD19
:10443000007002400378022B02D14068FBF7C8BF2E
:10444000012BFAD070470000F8B50446D1B9124DDF
:10445000124F134E2046FDF764FE2B783278FA5443
:104460000133DBB2012B2B7004D90E4B01221A70E1
:1044700000232B700C4801223146FDF757FE00281F
:10448000E8D0F8BD0229FCD1BDE8F840044906484F
:104490000122FDF74BBE00BFA6050020A4050020A9
:1044A0003006002033080020F05D0000083808B511
:1044B000062815D8DFE800F0080F151414140400BE
:1044C000BDE80840FCF7CABAFFF778FB40B9BDE881
:1044D0000840FCF7C1BAFCF7D3FA044B00221A706B
:1044E00008BDFCF7BDFA014B0122F8E731060020B8
:1044F00008B5FEF713FD0028FBD0FDF7A9F80A4820
:10450000FCF71EFA08B1FBF763FF0848FCF7C2FA94
:1045100008B1FBF75DFFFCF787FA08B1FBF758FF1E
:10452000034B01221A7008BD145E0000F05D00000C
:1045300032060020044B1B780A461BB10146034893
:10454000FDF7CEBD704700BF31060020F05D0000D2
:10455000024B1B780BB1FCF71FBD704732060020E1
:1045600070B58CB00023ADF804304FF0A0430322A7
:10457000C3F830274FF48052C3F80825FEF784FCB7
:1045800008B1FBF725FF0020FEF70EFD08B1FBF791
:104590001FFF0020FEF7CAFC234D0020FEF794FC0D
:1045A0000120FDF7B8FE0FCD06AC0FC495E803005F
:1045B0001E4B1F4A02934FF4807384E80300CDE939
:1045C000042303931B4A072302A906A8FBF7D0FF85
:1045D00008B1FBF7FDFEFFF78BFF00F06FF9044613
:1045E000F0B9154D154EFFF7B3FF00F0FFF92B782A
:1045F000002BF8D030882C7040BA80B200F036FA28
:1046000006A800F007FA0028EDD0069B8DF80530CB
:104610001A0A022101A88DF80420FFF78BFFE2E7B8
:104620004FF0FF300CB070BDD85D000033060020A5
:10463000330700203544000033080020A405002083
:104640000023435082B043580193019B02B070474E
:10465000144B0322C3F80825A3F5F0330022C3F856
:104660000022C3F8102101221A61D3F81021002A78
:10467000FBD00D4900220220C3F810215A601A60B5
:10468000C1F88000BFF34F8FBFF36F8F0B21C3F8CA
:10469000081306490A80D3F8142522F47022C3F8BF
:1046A0001425704700F0014000E100E0500A0020AE
:1046B00070B51F4D1F4E2978306800F00FFD04467D
:1046C00028B11D4B01221A800424204670BDFFF73B
:1046D000BFFF1A4B3268C3F80C252978C3F81015B0
:1046E000D3F8242522F0FF02C3F82425D3F824258B
:1046F00042F07102C3F82425114AC3F81C25012297
:10470000C3F8302540F20312C3F82C45C3F8342512
:104710000C4A127803391206012988BF42F0C142BF
:1047200042F48472C3F81425074AC3F81825CCE76D
:104730001D000020540A00203C080020001000400A
:10474000002941763F080020FF00030010B500F06B
:10475000BBFC084B01240022C3F80845C3F8102510
:10476000C3F81425A3F5B0335C60FFF771FF024B6B
:104770001C7010BD00F00140520A0020124AD0B156
:10478000D2F83C3723F0004323F0FF0343F000430B
:1047900043F07D03C2F83C37D2F87C3723F0004366
:1047A00023F0700343F0004343F06003C2F87C370A
:1047B000064B18707047064BC2F83C37D2F87C376E
:1047C00023F00043F2E700BF00100040530A00202E
:1047D0003430004010B5044600F076FC234940F226
:1047E0005B63C1F83835224BC1F83C35214B1B685F
:1047F0005B000233C1F808351F4B1B68C1F8043554
:104800000023C1F800310123C1F80032D1F80022A1
:1048100042F00202C1F80022184A0220C2F88001C8
:1048200010600B22C1F80423154A54B1127812B15A
:104830001846FFF7A3FF0023C1F80C3101234B609A
:1048400010BD104812780078C1F80C05002AF7D086
:104850000D484FF4A0714360C360FFF7F1FEBDE85F
:1048600010404FF4A271FFF7EBBE00BF00100040F4
:10487000555555004C0A00202000002000E100E0C2
:1048800034080020540A002000900040024B01220E
:104890001A649A63704700BF00100040064B002264
:1048A000C3F81C2101225A61D3F81C21002AFBD035
:1048B000D3F84805C0B27047001000404FF0804365
:1048C000002270B5C3F8002101221A60D3F800213C
:1048D000002AFBD03F48404C01254560C560D0F818
:1048E000043523F00303C0F804354FF4A071FFF73B
:1048F000A7FE4FF4A271FFF7A3FE4FF4A471FFF7D8
:104900009FFE4FF4A671FFF79BFED0F8103523F001
:104910000F0343F00403C0F81035D0F800322B43E6
:10492000C0F800324FF4803240F6C413C0F80423BC
:10493000C0F840354FF48273C0F8443560214FF41D
:104940008073C4F8803184F808132360234B05601A
:1049500000F5805000261E604560C560D0F8043523
:1049600023F00303C0F804354FF4A071FFF768FE8D
:104970004FF4A271FFF764FE4FF4A471FFF760FEDD
:104980004FF4A671FFF75CFE40F2E243C0F84035F9
:10499000C0F84465D0F8103523F00F0343F0070347
:1049A000C0F8103540264FF40073C4F8803184F805
:1049B00009632360C0F80423FFF77AFE40B9084B6F
:1049C0001870084B1D70084B186084F8016370BDA7
:1049D0000420FCE70080004000E100E038080020EF
:1049E0003E080020520A00204008002008B5074A6F
:1049F000D2F84431002BFBD004484FF4A271FFF7EA
:104A00001FFE034B18680130186008BD008000408D
:104A100038080020044B00211A781970034B1B88BA
:104A200003601046704700BF3E0800203C0800208D
:104A300010B50B4B1B7810F0300FC4B218BF44F008
:104A4000C004012B01D9002010BD064B2046197867
:104A500000F044FB0028F6D1034B01201C60F3E773
:104A6000520A00201D000020540A00202DE9F047C2
:104A7000AD4BAE4EAE4D0121197033780024074680
:104A8000820B2C80002B00F0C181002A40F0EE80C8
:104A9000C4B2FFF75BFE3B0A092B08D8DFE803F03E
:104AA000051A237A7D8207070795032C01D9012374
:104AB000ABE0A04B002018609F4B03221A709F4B65
:104AC0009F4A1870D2F8403723F00043C2F84037AD
:104AD000BDE8F0870F2CEAD8964B240104F0C004FF
:104AE0001C600020F4E7231F032B17D8924B0322EE
:104AF0001A70924B924A00201870D2F8403723F077
:104B00000043C2F84037FFF739FE8E4B01225A604E
:104B10008D4B1870BDE8F047FFF7CABDA4F108033C
:104B2000032B12D8844B04221A70844B844A01212F
:104B30001970D2F8403723F00043C2F84037002004
:104B4000FFF71CFE7F4B5960E2E7A4F10C03032B37
:104B50001AD8794B05221A70784B03221A70784ABA
:104B6000D2F8403723F0004323F47F4343F000435F
:104B700043F44443C2F84037D2F88837002BC9D1F8
:104B8000714B01221A70C5E7103C032C8FD86A4B79
:104B90000622E0E7032CA4D989E7032C87D8162343
:104BA0002B809EE7032C02D84FF4FF73F8E7231FF6
:104BB000032B02D844F29023F2E7A4F10803032B5D
:104BC000F2D90C3C032CF5D971E77FB27E2F05D1C9
:104BD0005E4BD8221A604FF46C73E1E77F2F05D14A
:104BE0005A4B08221A604FF48263D9E77F34E4B24B
:104BF000932C12D9554B1A685300D82A03F4FF732B
:104C000006D143F4007343F001032B8004205FE7D7
:104C1000082A08BF43F48063F5E717F1270FD7DBB5
:104C2000072FDDDC4A49012251F8224063B29F423E
:104C300018DA013ADB1B51F8222050B2002BA0EB0E
:104C40000707B8BF5B42002F5BB2B8BF7F42BB42D1
:104C5000B8BF22463D4B1A603C4B1B685B0003F417
:104C6000FF739DE701320F2ADED1F5E7032A5FFAD1
:104C700082F90FD1012B03D101232B80022027E7DA
:104C8000344B1B886FEA43436FEA53432B80FFF793
:104C90005DFD26E7012BEFD1DFF898802E4BDFF882
:104CA00098A0D8F80020DFF8B8C0C0F38501C0F3A1
:104CB0008704C0F3052018609AF8003002F0C002A3
:104CC000033B07F003070A43012BC8F80020CCF888
:104CD000007021D8032F21D1FF23CCF800301D4BC9
:104CE000DFF880E000271F80B9F1010F1B4BCEF8E1
:104CF000003039D118464FF48172394600F023FC58
:104D00004FF481723946104400F01DFC4846FFF70D
:104D100061FD04233370E4E6032FE0D02728DED9B9
:104D200001202880D4E600BF3E080020520A00205F
:104D30003C080020400800201D0000203F08002003
:104D4000001000400090004034080020540A002069
:104D5000205F0000500A00204C0A00204808002074
:104D60004408002020000020DCF800C05A70BCF18C
:104D7000030F08D80CF1FF3CBCF1020F13D8DFE899
:104D80000CF02A313500BCF1FF0F7FF490AE14F027
:104D90003E042FD002297FF4A4AEFFF749FE00287D
:104DA0007FF49FAE83E6002119702D482D4900F055
:104DB000A1FB0020FFF70EFD9AF80020D8F8003084
:104DC000042A48D0032A48D0052A40D0062A1FD0FA
:104DD0000021DB001FE0012119700F21204800F0A5
:104DE000B2FBE6E7022119705521F7E7042119709B
:104DF000FF21F3E72046FFF7EDFC00F067F91A4BBF
:104E00000122C3F800221A60032383E705205FE62E
:104E10001B014FF4E7710B44042A08BF5B0840F202
:104E20007122F9331146994202F27122FAD30F4BE3
:104E30000F4AC3F8401503F5B833C3F810250A4AE2
:104E4000C3F814250122C3F80425022362E79B015D
:104E50004FF43471DFE75821BBE75021B9E700BFB9
:104E60004A080020205E0000001000400080004042
:104E70004081004030B5544BD3F8042185B082B155
:104E80000022C3F80421D3F804310193019B4F4B56
:104E90001B78042B05D14E4B1B7813B14D4B0122CF
:104EA0005A60494BD3F80C21002A4BD00022C3F89A
:104EB0000C21D3F80C210292029A474A0221C2F82F
:104EC0008011424A1278042A3CD14449444A0C6871
:104ED000A51A684268414FF4817505FB00220A60FB
:104EE000C3F8042501225A60394B1B78ABB139480D
:104EF00040F2E243C0F840353F23C0F844354FF458
:104F0000A071FFF79DFB4FF4A271FFF799FB4FF4DF
:104F10000033C0F80433C26002602B4BD3F8003476
:104F2000DB0709D52F4A21781278D01E012801F01D
:104F30000F031FD8022B23D94FF481720021204682
:104F400000F001FB204BD3F800218AB10022C3F806
:104F50000021D3F800310393039B1C4B1B78042BD7
:104F600006D11B4B1B781BB11A4B0122DA601A6069
:104F700005B030BD053A012A02D811F00C0FDBD183
:104F8000627853B91849A01C00F050FA0028D3D118
:104F9000164A138801331380CEE7012B10D0022B61
:104FA00010D0032BC8D1FF21A01C0023DDB29542F5
:104FB000EED210F8015B8D4203F10103F6D0BBE79E
:104FC0000F21F1E75521EFE700100040520A0020C1
:104FD000340800200090004000E100E020000020A4
:104FE000480800201D000020205E0000500A00201C
:104FF0000448D0F840311BB14FF4A071FFF720BB3B
:10500000704700BF0080004008B52B4BD3F840210B
:10501000C2B1D3F80433DA0314D5FFF73FFC274BB2
:105020001B78ABB35F2802D90020FFF7A7FB22480B
:10503000FFF72CFC012242604FF4A071C260FFF721
:10504000FFFA02601C4BD3F84421DAB1D3F80433E1
:105050009B0317D5FFF722FC184B1B7823B35E2860
:1050600002D90020FFF78AFB1348FFF70FFC4FF42B
:105070000033C0F808334FF4A271FFF7E1FA0023C0
:10508000C0F844350E4B4FF40072C3F8802108BDC0
:105090000C4BD3F874354FF6F072134208D0B3F5C9
:1050A000003F05D20120C0E75E28DDD80120D9E706
:1050B0005E28F7D9BBE700BF00900040530A0020EC
:1050C00000E100E00010004070470000024B4FF488
:1050D0000072C3F85026704700100040831E062B54
:1050E0000CD958B1A0F1E2021A2A03D8074BD340D9
:1050F000DB0703D420F02000D82805D10339032989
:1051000094BF002004207047042070470144040429
:105110004FF08053D3F83001A0F1080358425841B2
:10512000704700004FF08053D3F83021082A06D191
:10513000D3F83431052B02D8024AD05C70470020E6
:10514000704700BF625F0000024AD2F80034002BB3
:10515000FBD0704700E0014010B5FFF7D9FF40B128
:105160004FF080430022C3F80C21C3F81021C3F88C
:105170003825FFF7CDFF002846D04FF08052654B11
:10518000D2F80414C3F82015D2F80814C3F8241573
:10519000D2F80C14C3F82815D2F81014C3F82C1543
:1051A000D2F81414C3F83015D2F81814C3F8341513
:1051B000D2F81C14C3F84015D2F82014C3F84415D3
:1051C000D2F82414C3F84815D2F82814C3F84C15A3
:1051D000D2F82C14C3F85015D2F83014C3F8541573
:1051E000D2F83414C3F86015D2F83814C3F8641533
:1051F000D2F83C14C3F86815D2F84014C3F86C1503
:10520000D2F84424C3F87025FFF78CFF18B1424B45
:10521000424AC3F88C26FFF785FF18B1404BFB22AA
:10522000C3F81825FFF77EFF70B14FF080414FF0B3
:105230008053D1F8E42ED3F8583222F00F0203F055
:105240000F031343C1F8E43EFFF76CFF20B1354B69
:105250004FF40072C3F84026FFF75AFF48B14FF0F1
:105260008043D3F80024D20744BF6FF00102C3F893
:1052700000242D4AD2F8883043F47003C2F88830F5
:10528000BFF34F8FBFF36F8F4FF08053D3F83021B0
:10529000082A0ED1D3F83431052B02D8234AD35C27
:1052A0003BB14FF01023D3F808224FF08043C3F8EE
:1052B00058254FF01023D3F80022002A03DBD3F83F
:1052C0000432002B22DA1A4901234FF01020C1F8D2
:1052D00004351224FFF738FFC0F80042FFF734FF0F
:1052E000C0F80442FFF730FF0023C1F80435FFF790
:1052F0002BFFBFF34F8F0C490E4BCA6802F4E062DC
:105300001343CB60BFF34F8F00BFFDE70A4B0B4A3F
:105310001A6010BD00C000400050004048810300EA
:1053200000F000400090024000ED00E05C5F0000F3
:1053300000E001400400FA05240000200090D003A2
:1053400038B585680446084645B122686168531C33
:105350008B4208BF00208A420AD2A854E268236820
:105360002AB161688B4202D22146904723680133FB
:10537000236038BD70B54D1E22D413681446C6B2E2
:105380000EE0D0542368E2682AB16168994202D9DC
:10539000214690472368013D01336A1C23600FD0EA
:1053A000A26872B1616803F1010C8C4514BF3046EC
:1053B00000209942E5D8013D63466A1C2360EFD185
:1053C00070BD3046DFE700BFC3062BD410F4007F6A
:1053D00070B514BF302620264D1E22D41368144603
:1053E000F6B20EE0D0542368E2682AB161689942AF
:1053F00002D9214690472368013D01336A1C23608E
:105400000FD0A2687AB1616803F1010C8C4514BF1A
:10541000304600209942E5D8013D63466A1C23606E
:10542000EFD170BD70473046DEE700BF6AB30F2A88
:1054300070B511D8013A2FD0034600EB020C01E001
:105440009C4524D08E461C4611F8012B13F8010B05
:105450009042F5D0801A70BD40EA010C1CF0030F99
:1054600004460B4606D0013AE6E7043A042A2046F1
:105470001946DFD9194620460E680568B54203F182
:10548000040304F10404F0D0D4E7104670476078B8
:105490009EF80120801A70BD00780A78DAE700BF14
:1054A0000CB430B587B00AAA002452F8045B01920C
:1054B0000B46CDE90404294602A8039300F0A6F8A0
:1054C00007B0BDE8304002B0704700BF027862B15B
:1054D00069B100EB010C034601E0634503D013F80A
:1054E000011F0029F9D1181A704710467047084665
:1054F000704700BF844640EA010313F0030F18D140
:105500008446202A0BD32DE9F007B1E8F807A0E87C
:10551000F807A2F12002202AF7D2BDE8F007042AFA
:1055200007D351F8043B40F8043BA2F10402042ADB
:10553000F7D2002A05D011F8013B00F8013B013AEF
:10554000F9D1604670478446002A2DD010F0030F31
:1055500004D000F8011B013A26D0F7E7C9B241EAAE
:10556000012141EA0141202A12D3A2F120022DE9B2
:10557000F0030B460C460D460E460F4688468946FC
:10558000A0E8FA03203AFBD2BDE8F00320320BD0AA
:10559000042A05D340F8041B043A05D0042AF9D2A2
:1055A00000F8011B013AFBD16046704700F1010190
:1055B00010F0030F11D010F8012B002A23D010F0A7
:1055C000030F0AD010F8012B002A1CD010F0030F93
:1055D00003D010F8012B002A15D02DE970004FF0F0
:1055E00001324FF0803350F8044BA4EB020525EA5A
:1055F00004051D4000D1F6E7A0F1040070BC10F8CE
:10560000012B002AFBD1A0EB010070472DE9F04FE0
:1056100000230C46036089B014F8011B039207466F
:10562000002900F0E582DFF8DC9507E03846FFF757
:1056300087FE14F8011B002900F058812529F5D1B7
:105640002246002612F8010B302800F29E801F2807
:105650000ED9A0F12003102B0AD8DFE803F0AC0923
:1056600009A8090909A4090909A0099C09098D00CB
:105670002A2840F0FC80039B10781D680433002D1D
:105680000393BCBF6D4246F01006A21C2E2800F00A
:1056900004810021742800F092807A2800F08F8025
:1056A0006C2800F032814C2800F03581682800F029
:1056B000BE811446002800F08880A0F12503DAB2EC
:1056C000532A00F22B81532B00F22881DFE813F0DC
:1056D000EB012601260126012601260126012601CD
:1056E0002601260126012601260126012601260182
:1056F0002601260126012601260126012601260172
:105700002601260126012601260126012601260161
:105710002601260126012601260126012601260151
:105720002601260126012601260126012601260141
:1057300026012601260182002601260126012601D6
:10574000260126012601260126012601D601F600A2
:105750002601260126012601F60026012601260142
:10576000260150024802130226012601ED012601FE
:10577000CB0126012601840046F400761446224619
:1057800012F8010B30287FF662AF5E286FD146F425
:1057900080561446F3E746F010061446EFE746F04D
:1057A00020061446EBE746F400461446E7E746F0C9
:1057B00080061446E3E746F040061446DFE7144649
:1057C00014F8010B00287FF478AF4FF0FF3009B0D8
:1057D000BDE8F08F46F4005616F0800A06D043F27A
:1057E000780A43F25803782818BF9A4616F4807353
:1057F00007BF06F48042B04626F4007806F48042E3
:10580000002A61D1039A18F0040F02F104060396EE
:10581000126800F0A08092B2002B65D028F40078C6
:105820005838202800F29D80DFE810F073019B00BB
:105830009B009B009B009B009B009B009B009B0090
:105840009B009B00D4009B009B009B009B00D4000E
:105850009B009B009B009B009B00090173019B0028
:105860009B009B009B00D4009B009B007301A0F158
:105870003004E3B2092B4FF000053FF607AF12F8F2
:10588000010B05EB850504EB4505A0F13004E3B2FF
:10589000092BF4D92E287FF4FCAE10782A2840F08A
:1058A0007781039B50781968941C04330029039373
:1058B0002246FFF6EFAE46F48076EBE646F48048EB
:1058C00006F480734FF0000A039A18F0040F02F1F7
:1058D00004060396126830D012B2002A31DA52421E
:1058E0004FF02D0A002B99D1012199E73868BB6848
:1058F000002B3FF46CAF7A6882427FF668AF0022DB
:105900001A54386809B0BDE8F08F144646F0010615
:1059100014F8010BCEE646F001061446B54BD3F859
:105920000080B8F1000F3FF484AE009103A901910B
:105930002B4632463946C0477BE618F0080FCCD0DC
:10594000D2B218F0200F40F03E8118F0400F18BF7F
:105950004FF0200A60E718F0080F3FF45DAFD2B2B5
:105960005AE74FF0FF36002321EAE17BA5EB0B0558
:10597000BAF1FF0FA5EB030540F20481CAF307213A
:105980003846023DFFF7DCFC5FFA8AF13846FFF744
:10599000D7FC40463A462946FFF716FD3A46594697
:1059A0003020FFF7E7FC731C0AD001360DF1140A12
:1059B000564416F8011D3846FFF7C2FCB245F8D12F
:1059C00018F0100F3FF435AE29463A462020FFF775
:1059D000D1FC2EE61046002A00F0068108F4004CA7
:1059E000624600238C464FF02C0E114603F0030252
:1059F00009B1032A14D01E46A9FB0032D20802EBDB
:105A0000820306F1200BA0EB4303EB44303309285B
:105A10000BF80C3C06F1010340F2D2801046E5E79A
:105A200003F120026A445E1C02F80CECE4E71078F3
:105A3000682800F0D480541C46F004063AE610466C
:105A4000002A00F0D1800DF1140C002302F00702AF
:105A50003032C0080CF8012B1E46024601330028E4
:105A6000F4D1C91A80E716F4807300F0AF8026F4F1
:105A7000007806F480424FF0000AC1E6039B013D26
:105A8000191D93F8008003913A4629463046FFF7E6
:105A90009BFC41463846FFF753FCB3461BF0100F02
:105AA0003FF4C7AD90E72521C0E5039B524A181D7E
:105AB0000390D3F800A0BAF1000F08BF9246F20598
:105AC000D04626F4007B504640F18580FFF7FEFC6F
:105AD0000646AD1B3A4629465846FFF775FC002E90
